:02000004C0D06A
:1000000010B58CB062B605F0C9FA01F0E9FB01AC9D
:10001000204606F0D7F920850F49084203D001A8F1
:100020000021018506E001A801F0DDFB00F062FE81
:1000300000F06EFE01F044FD01A9884203D101F0F9
:1000400041FD01F0D0FB01A8008D002802D1002065
:100050000CB010BD01F02FFDFFFF0000F0B585B022
:10006000E64D2878E64F0C282BDC052870D00C28AC
:1000700000D0D8E0E34C012020760026E66120463F
:10008000183003F04DF8E06102F0B4FBE069FD497F
:10009000884200D129E2002800D126E2F7498842AF
:1000A00000D0B1E101F064FE01F068FEA6602068B6
:1000B000002800D119E2E069F249884200D013E13A
:1000C00013E20D286BD00E2800D0ACE0EC4C0120E0
:1000D00020760026E6612046183003F021F8E06122
:1000E00002F088FBE569BD4200D023E101F040FE4B
:1000F00001F044FE0020A0602168002900D1F4E155
:10010000E169E04A914220D1EFE16168884200D381
:10011000EBE103F08FF8002800D0E6E1A068E16889
:100120003825684322681018002902D08847002823
:1001300007D0012803D1A06845432068401905F085
:1001400029FAA068401CA06021680029DDD1CCE11B
:10015000CB4C012020760026E6612046183002F0C4
:10016000DFFFE06102F046FBE069C649884200D14A
:10017000BBE1002800D1B8E1C049884200D083E14A
:1001800001F0F6FD01F0FAFDA6602068002800D11C
:10019000ABE1E069BB49884200D0C8E0A5E1B84CBA
:1001A0006068A168814201D2012020760025E561C6
:1001B0002046183002F0B4FFE06102F01BFBE0695A
:1001C000B049884200D190E1AC49884200D195E124
:1001D000002800D189E12068002800D17FE1A068D3
:1001E0006168884200D37AE103F024F8002800D047
:1001F00075E1A068E1683825684322681018002975
:1002000002D08847002807D0012803D1A0684543C1
:100210002068401905F0BEF9A068401CA060216864
:100220000029DDD15BE1E74C012020760025E56166
:100230002046183002F074FFE06102F0DBFAE0695A
:10024000B84200D0B1E001F093FD01F097FDA56048
:100250002068002800D148E1E069DB49884220D1CC
:1002600043E16068854200D33FE102F0E3FF0028EC
:1002700000D03AE1A068E168382568432268101888
:10028000002902D08847002807D0012803D1A068A0
:1002900045432068401905F07DF9A068451CA5601C
:1002A00020680028DDD120E16068864200D31CE18F
:1002B00002F0C0FF002800D017E1A068E1683825EF
:1002C000684322681018002902D08847002807D008
:1002D000012803D1A06845432068401905F05AF968
:1002E000A068461CA66020680028DDD1FDE060689B
:1002F000864200D3F9E002F09DFF002800D0F4E030
:10030000A068E1683825684322681018002902D0E7
:100310008847002807D0012803D1A06845432068FA
:10032000401905F037F9A068461CA660206800282F
:10033000DDD1DAE06069002808D064216428024633
:1003400000D30A46801A606100D105E19E488542CB
:1003500000D1CAE0002D00D1C7E02068002800D1FC
:10036000BDE0A0686168884200D3B8E002F062FF97
:10037000002800D0B3E0A068E1683825684322680F
:100380001018002902D08847002807D0012803D17F
:10039000A06845432068401905F0FCF8A068401C9F
:1003A000A06021680029DDD199E02068002800D1F3
:1003B00095E0A0686168884200D390E002F03AFFBF
:1003C000002800D08BE0A068E168382568432268E7
:1003D0001018002902D08847002807D0012803D12F
:1003E000A06845432068401905F0D4F8A068401C77
:1003F000A06021680029DDD171E0C046001800200E
:10040000555010B0AC220020A088049020680390C2
:10041000EE79AB796F792A79ED78E1686846056005
:10042000416012023A431B0233430398049901F0DE
:1004300025FD2068002852D0A068616888424ED20D
:1004400002F0F8FE00284AD1A068E1683825684328
:1004500022681018002902D08847002807D00128F8
:1004600003D1A06845432068401905F093F8A068BF
:10047000401CA06021680029DFD130E0555010B049
:10048000AC220020445010B02069002803D0E97845
:10049000490801F03DFE2068002820D0A06861686E
:1004A00088421CD202F0C6FE002818D1A068E1687C
:1004B0003825684322681018002902D08847002890
:1004C00007D0012803D1A06845432068401905F0F2
:1004D00061F8A068401CA06021680029DFD1606835
:1004E000A168814201D302F0A5FE02F0A3FE00281C
:1004F00001D101F0EDFA012005B0F0BD01F038FCAA
:1005000001F03CFCA56020680028EED0E0692E498F
:1005100088421ED1E9E760688542E6D202F08AFE91
:100520000028E2D1A068E1683825684322681018E5
:10053000002902D08847002807D0012803D1A068ED
:1005400045432068401905F025F8A068451CA560C2
:1005500020680028DFD1C8E71B488542C5D0002DA0
:10056000C3D001F005FC01F009FCA660206800285A
:1005700000D1EBE6E0691449884220D1E6E66068E4
:10058000864200D3E2E602F055FE002800D0DDE608
:10059000A068E1683826704322681018002902D04C
:1005A0008847002807D0012803D1A0684643206867
:1005B000801904F0EFFFA068461CA66020680028A0
:1005C000DDD1C3E6AC220020445010B0B0B50546E2
:1005D000072028400024012813D0022813D1002925
:1005E00008D00A4802F010FE68B2002809DA02F0CA
:1005F0005DFC06E0FF2152310448002202F030FE8B
:1006000004462046B0BD022001F055FA241900200E
:10061000B0B50C460546591C0A48914210D80A4903
:10062000CA5C2A70C918531EDBB2532B08D2491C6E
:10063000204605F037FE2878002121540120B0BD66
:1006400001F039FA8469000024190020F0B583B064
:1006500016460D461B4FF8780290BC781A48019058
:10066000042D28D9012C17D102F012FE02F022FE2F
:10067000012E11D1062D1ED37979144801708A00FC
:1006800001201043401D0A2915D8A84213D8B91DCE
:100690000F4805F007FE06E0781D6D1F294602F0A1
:1006A0000DFEA8420BD101200021029A944200D0F5
:1006B000084603B0F0BD0198401C01F0FCF9019818
:1006C00001F0F9F92419002083690000C018002006
:1006D00098180020F0B587B0069315460591074697
:1006E000109E02F0EFFE3080119C002121803088A6
:1006F00000B201282DDB0F9904910E9A0D990391F8
:100700000C9E154909780029029205D013A238469B
:10071000059902F071F807E069460860531C12A2BF
:100720003846059902F068F80020287030701349A7
:100730004D60CE60069A0A81039A0A820880049866
:100740004880029880B202F0C7FE208002F04AFF83
:10075000218808B207B0F0BD15190020494E564156
:100760004C49442100000000534543503235364B7C
:100770003120253032642F253032640040210020A2
:1007800070B5A8B00024029424480078002841D114
:1007900023480278684604602120224903AE33468C
:1007A00002F090FC15A80BAD2946324600F0AAFBDA
:1007B0002021304605F070FD02F089FD064602F06A
:1007C00081FD01466846456002AA0260FF2352335C
:1007D000154D30462A4600F0ADFB0299CAB2AA1860
:1007E000012809D1902010705470881C81B22020FB
:1007F00001F0ECFC204609E06F20107001205070E1
:10080000881C81B2202001F0E1FC002004F02EFEC3
:1008100028B070BD6D20000201F04DF915190020BF
:10082000C0180020981800202419002080B5064820
:1008300069210170862141702020022101F0C6FC4F
:10084000002004F013FE80BD24190020F0B581B013
:10085000009316460B9A0A9B002B01D001241C80A2
:10086000089F069D002A01D0012313801F22D20673
:100870000C4CA36893430CA201F0BEFF0DA23046BE
:1008800000993B4601F0B8FF0D4800788000201821
:100890000321C9434750284600F0B4FB002001B0B3
:1008A000F0BDC046981800204163636F756E7420D8
:1008B00025640000696E64657820256400000000EE
:1008C000C0180020F0B581B0364C20461D304021C4
:1008D00035A201F091FF5D34C02136A2204601F01F
:1008E0008BFF04F065FE364E7568B7683548802189
:1008F0000022009202F0B4FCAF422DD2314D30689C
:10090000002820D0B068716888421CD202F092FCA6
:10091000002818D1B068F168382778433268101879
:10092000002902D08847002807D0012803D1B068E9
:1009300047433068C01904F02DFEB068401CB06019
:1009400031680029DFD17768B46880210022284609
:1009500002F086FCBC42D2D301F0BAF819488021DB
:10096000009C224602F07CFC174D284600F034FB28
:100970002E462136304600F045FB304605F080FD1E
:1009800001462131C9B290226A5469184C70233053
:1009900081B2202001F01AFC204604F067FD01B06E
:1009A000F0BDC0466C23002052657475726E696E8E
:1009B00067000000416464726573732E2E2E000080
:1009C000AC220020001800202419002080B5064821
:1009D00069210170862141702020022101F0F6FB7F
:1009E000002004F043FD80BD24190020F0B5A1B023
:1009F00015460C46064616AF384605F0E3FC38852A
:100A000081B2002924D0102900D1A4E016A9002227
:100A10000A850F210A030240FF2109020140090A49
:100A200003235B039A4209D009231B039A4205D092
:100A30008E4908400D21C9020843010A2268814BF2
:100A400099542168591848702068801C206073E010
:100A500016A800F0C8FE7B490878552800D083E02E
:100A6000042D00D884E0487809210903764F774A9D
:100A7000032820DC019102287ED1754800210170F5
:100A800001222946FFF7E2FD002800D1D2E002F062
:100A900023FC0546002D00D0A2E002F03BFC774885
:100AA000784477497944774A7A4404F08DFF0020EE
:100AB00004F0E6FC3CE000920297042800D0BCE081
:100AC000644C6549052320462A46FFF7A1FD20789E
:100AD000811DC01DA84244D85A480246575C5F4851
:100AE00007705018BA000123134359180A2F38D839
:100AF000A94236D8411C5A4C204605F0D3FB009A37
:100B000010464A30052F2CD12168914229D16168C5
:100B1000814226D1E068002823D1554878445549C0
:100B20007944554A7A4404F04FFF002004F030FF26
:100B3000306810210143316000F0C2FF16A98842DD
:100B400003D100F0BFFF00F04EFE16A8008D002874
:100B500008D121B0F0BD16A800210185102000F0B9
:100B6000AAFF029800F0A7FF3720400200F0A3FF81
:100B70006720000200F09FFF0092002840D001286B
:100B80005BD1062D39D32F48467934480670B20020
:100B900001201043401D0A2E2FD8A8422DD82948E5
:100BA000811D2F4D284605F07DFB00984A30052E0B
:100BB00023D12968009A91421FD1696881421CD1D2
:100BC000E868002819D103AD284600F0EBF9083594
:100BD0001C484122294600F0BAFE2068413028E036
:100BE000284605F04DFC064616482946324600F0D8
:100BF000AEFE206880192060FC37384600F05BFFAD
:100C000000211048034619700120587005229A707F
:100C10000222DA70134AD369134A9342024600D083
:100C20000A46002B00D00846104306490871206888
:100C3000401D2060019800F03EFF6D20000200F092
:100C40003AFFC04624190020846900002C0000806F
:100C50001519002016190020C1180020C018002006
:100C600098180020AC220020445010B0FF0700006C
:100C70002DFDFFFFA1FDFFFFA5FEFFFF31FCFFFFE4
:100C8000D9FCFFFF81FDFFFFF0B581B00C46052ABE
:100C900008D3154D15A104262846324600F0F4FE6F
:100CA000002801D001B0F0BD3120287010206870FC
:100CB0000027AF70EE706E1D40210091304602F0AB
:100CC0005BFA2871C0B237543718BE1C3046009901
:100CD00002F06AFA7870C0B23018401B2060092018
:100CE000000300F0E8FEC04624190020E0010000E7
:100CF0000000000010B501F013F80024204604F0B5
:100D000007FB012004F004FB204604F0AFFB10BDFC
:100D100070B590B000250F950E950D952F4E0CA82F
:100D2000058001AC204605F04DFB2085294908428D
:100D30000FD001A90D850F210903014009221203DB
:100D4000914203D00322520391421FD10CA9088083
:100D500023E001A800F047FD0E980F9000240E94A8
:100D60000D980F99C0B289B201F030FA0F900D942E
:100D70000F9800282BD00F9A0EAC2146FFF784FF66
:100D80000F9A0DA82146FFF731FE11E012490840E5
:100D90000D21C90201430CA801800C98000A0E998C
:100DA00070540C980E99711848700E98801C0E9013
:100DB00000F086FE01A9884203D100F083FE00F016
:100DC00012FD01A8008D0028A9D000F074FE04488F
:100DD00000F071FEFFFF0000FF0700002419002053
:100DE00082690000F0B5A5B016460C460546002005
:100DF0002870802B12D80490694608220B604A6044
:100E0000886005AF04A905223846334601F0E0FFAB
:100E1000049B284621463A4601F04AFF25B0F0BD22
:100E2000B0B5094C2060A1800020E080217A012526
:100E30000D43257205490A608B80C880087AFE221E
:100E400002400A72B0BDC046801800208C180020F5
:100E500006480021C180027A01231343037204482B
:100E6000C180017AFE220A40027270478018002079
:100E70008C18002070B50C4605461B4E327A0120B6
:100E800002420DD1194EF188B088421A0020A242C8
:100E900029DB306840182946224602F01BF81DE085
:100EA000F188B3885B1AA34212DAFE231A40327229
:100EB0000E4A137A03431372002902D03068FFF7F9
:100EC000D9FF28462146FFF7D5FF0021F18070BDEC
:100ED000306840182946224600F039FDB01D0188CF
:100EE00009190180204670BD801800208C18002050
:100EF0000248017AC90700D10148704780180020D4
:100F00008C18002070B50C4605462126202330465B
:100F100011461A46234602F06DF8002130460A4673
:100F20002B4602F04FF8012330462946224602F0B4
:100F300079F870BDF0B5A5B0079306922B9D249566
:100F40001CAA05922023049302F024F821240027F0
:100F500009AE204639463A46334602F033F80123BB
:100F6000204631462A461C4602F05CF8089708A83D
:100F70006946049A0A60069A4A60079A8A60C860BD
:100F8000074903222846059B02F064F82A99086065
:100F900024A80422394600F0D1FC204625B0F0BD3B
:100FA00001060000B0B594B004460948027800205C
:100FB000694608602120074902AD2B4602F082F8FD
:100FC0000AA920462A46FFF79DFF14B0B0BDC046CF
:100FD000C018002098180020B0B594B0044601ADA8
:100FE0002846FFF7DFFF4820285C0121014002204E
:100FF00008432872083521222046294605F052F977
:1010000014B0B0BDF0B5ABB0049013AF3846FFF7E5
:10101000C9FF4820385C01210391084002210143A7
:10102000397208370AAE30461ECF1EC01ECF1EC012
:10103000397801702121202302933046324601F095
:10104000A9FF13AC204601F08FFF142568464560C8
:1010500005AF0760204603993246029B01F068FF06
:10106000034904983A462B46FFF7BCFE2BB0F0BD6F
:10107000C1180020F0B58FB014460D910788418843
:1010800000220492D64302220392D543F04A0592ED
:101090000E94A7420A93079109D2149A02929A1CBD
:1010A00000920B970691089509960C90EAE006913C
:1010B0000A9A002A19D0079880B20599411808B2F7
:1010C000B04212DD080440131018801CB2B203882D
:1010D000934203D04388934200D101E2EA00801892
:1010E0001030491E09B2B142F0DC069804B2F4E1B6
:1010F0000B9901E00D9B9B5CDFB21F2F0EDD3A4682
:10110000203A1A2A05D801249440FA4A14420C982D
:1011100016D15D2F14D07D2F07D111E00D2F04D8EB
:101120000122BA40F24C22420AD1203BDAB25E2AB6
:1011300000D9CEE1491C01808AB20E9B9A42D9D3D4
:101140000A9B002B1FD0079FB8B2029A904200D38F
:10115000C8E17F1C0C9A5780C0000A9A101886803C
:101160004680049AC280821D841C031D002800D181
:10117000B8E10797042505700B9820801980049822
:1011800010800A9B0C98491E0B910180069A521CF4
:10119000002B069209D08088B1B2884205D000B2F7
:1011A000C0001818C188491CC180089D5AE001225E
:1011B0007D2B00D0039AFB000A9CE35C089D6C1C0D
:1011C000934200D089E1099B0C9CA3800B9A521C8E
:1011D000828038B2984245DD0888B04202D0488803
:1011E000B0424AD0E80009181031781E002F074697
:1011F000F2DC37E00A98002830D0AC1C079A90B295
:101200000299884200D365E1521C0C9907924A80EA
:10121000C0000A9908180999818041800499C18009
:10122000811D861C021D002800D153E10324047097
:10123000781C30801380049808800698401C069023
:101240000C988088099989B288420AD000B2C000FF
:101250000A990818C188491CC18002E00698401C00
:1012600006900B930B99491C0C9801800B918FB23F
:101270000E998F42099E05D31AE7A780F2E70C98D2
:101280008380EFE70D99CB5D2B2B0BDD5C2B78DC9E
:101290002C2B00D1DEE03A2B00D10EE15B2B00D1EC
:1012A000A0E025E719460939192900D90AE10120EA
:1012B00002468A408C4C2242D4D1019019290C98C4
:1012C00000D0FFE00B9A531C038098B20E9988421D
:1012D00000D3FCE0164632460D990C5C5C2C06D01F
:1012E000002C00D1F3E0222C84D01E4615E0401CD7
:1012F0000E9988421E4610D2961C0C980680B0B2F9
:101300000D99085C03465C3B6C1C192B34D8019D7D
:101310009D4076490D4208D0089D731C0C980380AF
:1013200098B20E998842D6D3D1E0192B089D23D1CB
:10133000D31C0C980380049A98B20E99884217D255
:101340000D99085C002813D001463039C9B20A292A
:1013500007D301466139062903D34138052800D94E
:10136000B8E05B1C0C980380501C02B2042AE3DB3B
:101370005E1E0C980680D0E72228CED02F28CCD035
:10138000A8E05D2B04D07B2B2CD07D2B00D0AFE6CA
:101390000A98002800D165E7079880B2059940189F
:1013A00002B2B2421ADD01044C130099091907B2C6
:1013B00002460A9800194588B6B2B54203D085881E
:1013C000B54200D1F3E6089DE80009181031083C49
:1013D0007F1E501E02B2099EB242EADC6C1CB24271
:1013E0007BD03FE70698401C06900A98002800D161
:1013F00038E7AC1C079A90B2029988426DD2521C11
:101400000C9907924A80C0000A9909188E804E8074
:101410000498C880881C00295FD00C9A9288099C87
:10142000A4B2A24206D012B2D2000A9CA218D4885A
:10143000641CD480012202247B2B079B0B9E00D0CE
:1014400022460A700680059818180C99888009E7CA
:10145000FFFF00000A9A002A00D103E78088B1B29A
:10146000884200D1FEE600B2C000105C401EC0B24F
:10147000022800D2F6E6079880B2059A841823B2B3
:10148000B34200DCEEE620044013009A1218501913
:101490004078401EC0B2012806D81088884203D088
:1014A0005088884200D1EAE6E800121810325B1E2C
:1014B000601E04B2B442EADCD4E60799059A8918A2
:1014C0008180CFE6002B0B9900D015E6F0E52C4685
:1014D00000E06C1C0C980B99018020460FB0F0BD09
:1014E0002C46FAE7AC1CF5E71300800041044401E8
:1014F0000126000001100004002101804180014903
:1015000081807047FFFF0000F0B583B015460E469E
:10151000044601AF3846FFF7EFFF1649204604F0B6
:10152000BBFE802069460860231D384631462A46A6
:10153000FFF7A0FD0146033007D00846013006D072
:101540000846023005D11EA012E016A010E00AA045
:101550000EE0002060802070012904DB802904DD7A
:101560002648784404E01FA002E061800121217038
:1015700003B0F0BD040400004E4F4D454D3A204AE3
:10158000534F4E20737472696E6720636F6E74617F
:10159000696E7320746F6F206D616E7920746F6B4C
:1015A000656E73004A534F4E20737472696E6720E4
:1015B0006973206E6F7420636F6D706C6574650065
:1015C000496E76616C6964206368617261637465F9
:1015D0007220696E204A534F4E20737472696E6791
:1015E00000000000556E6B6E6F776E207061727335
:1015F0006572206572726F7200000000A2500000D8
:10160000F0B583B05488154B844201D2184621E0CE
:1016100002930191C300D31808255D5F9F1D00212F
:101620003E88401C83B2A34213D2DB00D7180623A6
:10163000FB5EAB420DDCB342F3DD0B469EB25B1C9E
:101640000093019B9E4200D0009908379E42E7D14B
:1016500000E0029800B203B0F0BDC046FFFF0000FA
:10166000F0B582B04F880024874228D3C2008B187F
:101670000825401C82B2BA4221D25A5F0092DA8811
:10168000019200263D4682B2D2008A180623D75E18
:10169000401C009A974211DC019A93B2741C9F423D
:1016A00000DC344686B2F2008A189F4201DD1289BE
:1016B00001922F46BE422646E4D300E03446A0B253
:1016C00002B0F0BDF0B583B05488154B844224D3EA
:1016D00001910293C300D31808255D5F9F1D401C34
:1016E00000263F8883B2A34216D2DB00D31806211E
:1016F0005B5E401CAB420FDCBB42F3DD83B2D90022
:1017000057180837711C0091B6B201998E42009E9D
:10171000E7D103481B1800E0029B18B203B0F0BDEC
:10172000FFFF000010B55388054C834205D3FFF737
:10173000C9FF80B2A04200D0441C20B210BDC046F8
:10174000FFFF0000F0B589B05588244C854241D395
:1017500005910694C4000892121906210791575E5C
:1017600008210491525E441C03E008984588039BBD
:10177000029AADB2E000089908180799AC4228DA3D
:10178000465E641C964224DC0830BE42F6DD0499B5
:10179000475E008800B2801B019005980393029277
:1017A00004F06EFE029A039B80B201998842E1D157
:1017B000019005981D4601F035FA0090701901F06E
:1017C00031FA01460098019A00F05EF90028CCD168
:1017D00000E0069C20B209B0F0BDC046FFFF00004B
:1017E000002081467047814670470000F0B581B007
:1017F00000920F460546484B9F420FD0464C40266C
:101800002046314604F048FD00984028024600D3A7
:1018100032462046394600F09AF83F4B9878012826
:101820000BDC00282BD0012869D1D81C04211C46D0
:1018300001F066FB402120462CE0022828D0052834
:101840005DD11879D97809020143344A106800241F
:1018500081425AD1324E00988019071F1068002823
:101860001BD01446394631402E480268914200D9B7
:1018700007683A4632402C480068591D31E0002480
:101880009C715C711C71DC7040211846A8473CE0DB
:1018900021484021A847002437E098795979090266
:1018A00001432248016001684908A8292DD814463F
:1018B00001681C4801601C491D4A0A6059781A7861
:1018C00012020A431B490A601B49009A57183946FD
:1018D00031400268914200D907683A463240D91D2A
:1018E000134800F034F837400F480168C919016007
:1018F0000C480168C91B01602068401C2060094831
:10190000016801200224002903D10448002101605C
:101910002046C0B201B0F0BD381B002018190020CD
:10192000FFFF000020190020781A00201C19002059
:10193000241900207C1A0020F9FF010080B50B4615
:10194000002A03D011461A4604F0B0FC80BDB0B5A1
:1019500088420DD9002A14D0491E5242401E00234D
:10196000DB431C4654430D5D0555521CF9D108E07C
:10197000002A06D000239CB20D5D05555B1C521E4B
:10198000F9D1B0BD0148002101607047181900204D
:10199000F0B581B0294F3968002926D00090284C35
:1019A000661D39253046294604F076FC2548016835
:1019B000090A2170006860700520A070224A106832
:1019C000000AE0701068207111683868002914D08E
:1019D00014463B253B2800D83D681C48016830462A
:1019E0002A46FFF7B4FF009A18E01748002101606B
:1019F00016480160164801701DE01646392800D8C7
:101A00003D683868000A60713868A0710F48016845
:101A1000E01D2A46FFF79BFF009A34460B480168F9
:101A2000491901603868401B38602068401C2060FC
:101A300003484021904701B0F0BDC0462019002066
:101A4000381B00207C1A002018190020781A00206A
:101A5000961A002080B500290BD0064A0023136097
:101A6000054A064B1360064A1160064A1160FFF7EB
:101A70008FFF80BD18190020781A0020241900203B
:101A8000201900201C19002070B5431E491E524227
:101A90000020C443002A0CD0264656438D5D9E5D2F
:101AA000521CAE42F6D00020C1430120AE4200D805
:101AB0000846C0B270BD80B50146484604F08EFCB1
:101AC0004846704700204946002900D048697047C1
:101AD00080B501F0AFFB00280BD1064860210170F2
:101AE0000021417002228270C1700171052101F054
:101AF0008BFB80BD0018002010B51948C078032862
:101B000007DC01280DD0022826D1164803F001F881
:101B100010BD04281DD008281ED1124802F0F7FF7E
:101B200010BD104C0121204602F0ECFF204602F0CF
:101B3000C8FF0D48007800280FD10C480024072268
:101B40002146FFF7FBFE0A480E222146FFF7F6FE6C
:101B500010BD044802F0D9FF10BD1020FFF7ABFF05
:101B60000018002060210020801A0020811A002027
:101B7000881A00207F2101400148405C7047C04620
:101B8000811A002010B515480179042917D00229BF
:101B900006D0012920D1811D124802F08BFE10BD14
:101BA000C2787F211140062916D8C9B24A000E4BCF
:101BB00000249C52821D0B4802F00AFF10BDC2781F
:101BC0007F211140062907D84279C9B2044B5A54E3
:101BD000821D044802F09DFE10BDC0460018002082
:101BE000811A002060210020881A002070B5154657
:101BF0000E460446FF2D1AD80D4850210170E91CED
:101C00000A0A4270817080212143C1702021017134
:101C10004571062101F0F8FA3046294601F0F4FA40
:101C20007F20204040007D210901024A115270BDF1
:101C300000180020881A002080B50A46014682203C
:101C40001423FFF7D3FF80BD80B50D48017800292C
:101C500015D10C4906220A700A2101700A488278BF
:101C6000417809021143FF225232914200D31146BA
:101C7000064A11801288C11C0548FFF768FE80BD26
:101C8000961A0020801A002000180020981A0020C0
:101C900024190020B0B51E4882784178090211430A
:101CA00000780F2809DC0E280ED00F281FD1002045
:101CB000012926D1FFF720FF22E010281BD016288B
:101CC00015D1FFF7C1FF1BE0002012490A1A9389C2
:101CD000002B09D06424642B1D4600D325465B1BD2
:101CE00093810D4A13420DD0801C0E28EED10220A4
:101CF000FEF7B4F9B0BD0020032902D3FFF742FF7D
:101D00000120B0BD0548002101701020FFF7D3FE6F
:101D100000180020881A0020FFFF0000961A0020FB
:101D200010B5092001F0ACF809480A4901600A48D9
:101D3000002404700948048009480470FFF722FE5B
:101D400008480460084804600848046010BDC046A4
:101D50008C2400203100ADDE961A0020981A002055
:101D6000801A00209C1A0020A01A0020A41A00202B
:101D700001480021016070479C1A002002480021A0
:101D80000160024801607047A01A0020A41A0020D8
:101D9000B0B50D460446206B00280CD000F042FF81
:101DA00001462046884700F03DFF0021002810D062
:101DB000012800D00446002D07D02046A847002166
:101DC000002806D0012800D00446204603F0E2FB9C
:101DD00001210846B0BDB0B58EB00D460446606B1B
:101DE00000280CD000F01EFF01462046884700F076
:101DF00019FF002100281BD0012800D00446002D27
:101E000008D02046A8476C460021002810D00128A1
:101E100000D004466D46382228462146FFF797FD3C
:101E2000606A0490A06A0590284603F0B3FB012184
:101E300008460EB0B0BDB0B50D460446E06A0028B5
:101E40000CD000F0EFFE01462046884700F0EAFE85
:101E50000021002810D0012800D00446002D07D012
:101E60002046A8470021002806D0012800D00446BB
:101E7000204603F08FFB01210846B0BDF0B587B0C6
:101E8000029303920591002977D004900D98019058
:101E90000C98009000253C4B06952F461E4601F0FD
:101EA000C9F9002855D138206843049C25183346C9
:101EB0001A680121954200D0069906912056002803
:101EC00041DA2020285C0221695E0A1A039CA242A2
:101ED00039DC4118EA888918039A8A4233DA0421E6
:101EE0006C5E221A02998A422DDC2018298940183A
:101EF0000299814227DA1868854210D018680028B4
:101F00000DD00198002805D028460199884733460E
:101F1000002818D018680199FFF73AFF08E00098E8
:101F2000012809D002280ED128460199FFF783FF26
:101F30003346002807D022E028460199FFF74BFFDF
:101F4000334600281ED17F1CFDB205988542A5D3DB
:101F500000E03346069800060FD0186800280CD021
:101F600001F068F93146002807D108680199FFF7A8
:101F70000FFF002801D00020306007B0F0BD002026
:101F80001860FAE71D60F8E79C1A0020F0B589B0E8
:101F90000C46014602AD1C2228460192FFF7D7FCF1
:101FA0002168E98062682A81A0681A4F65233B7026
:101FB00092B242438BB25343D9084E1C07221342BC
:101FC00000D10E46314600910426864070181D301F
:101FD000010A7970B8700321384601F015F92846D6
:101FE000019901F011F9A06838700121384601F01B
:101FF0000BF9E06800F016FEB1B201F005F90098A7
:1020000085B2206900F00EFE294601F0FDF809B006
:10201000F0BDC0460018002070B5044620787F2629
:10202000064001F007F9002830D1002E2ED0E069DB
:1020300000281DD000F0F6FD0546052E02D1A07E39
:10204000002824D0284604F01BFA064612486521D1
:10205000017031461C310A0A42708170032101F07F
:10206000D3F81C21204601F0CFF8B1B228460BE08E
:10207000094865210170002141701C2585700321EC
:1020800001F0C2F82046294601F0BEF870BD204696
:102090002946FFF77BFF70BD0018002080B50A4677
:1020A000C16900F001F880BD70B5164604460025F0
:1020B000002C1CD02078072801D0022817D1084610
:1020C00000F0B0FD002812D004F0DAF94643E088B1
:1020D00086420CD9311A7D2000014843A17E03F0CD
:1020E00065FFA17A4900C9B264224A4315182846FF
:1020F00070BD000080B50548462101700021417087
:102100008170032101F080F8FEE7C046001800202E
:10211000F0B581B00446002C2BD0174802688A42E3
:1021200003D1164A13685B1C136006680E43134AFA
:102130001568134F002901D0066004E000230360F6
:1021400013607B1C1E430068884201D00020106091
:10215000082D0BD30321284603F0AEFF0120800792
:102160003043002900D03046384000E03046294650
:10217000A04701B0F0BDC046A01A0020A41A00205C
:10218000FFFFFF7FF0B581B00F4E01243470B11C0A
:10219000FF2750377A1C204601F01EF8054675705F
:1021A0007A1B7719F91C022001F016F8B8702D1867
:1021B0007619F47000F0CAFF307190207071002021
:1021C000B071E81D01B0F0BD24190020F0B587B052
:1021D000864A1368864A934200D004E107221042DF
:1021E00006D00746F8B2FEF7F1F980B207B0F0BDAD
:1021F0000392804A0192832204927F4C804E0746CC
:1022000011E004980D307F4908704D70069807431F
:102210000221039A1042384605D0E3E7FFF7B2FFE8
:10222000014628462F46102202408DB2002D06900E
:1022300000D18CE0002A00D089E02078082805929F
:1022400019DD09281FD00A2858D16F4808404008D6
:10225000A92800D3C4E053203070280A7070B170F0
:102260000321304600F0D0FF6648294600F0CCFF3D
:102270000020207052E007283ED16A487844294661
:10228000FFF7E8FB4AE000215C4F3846029102F07C
:1022900021F9384602F031F900280DD1FFF718FC7A
:1022A00080210022304600F0DBFFFFF7F3FC3846C8
:1022B00002F023F90128F1D1EF1D7808A92800D3F5
:1022C0008EE004980D304F4948554819029A4270E3
:1022D0000198001DAA1C0240481D0D46FFF737FB60
:1022E000052228460299FFF729FBBBB2434804990F
:1022F0002A4602F01AF911E000286ED0F8B22946F9
:10230000FEF764F9002809D067E0FFF7E1FB8021C0
:102310000022304600F0A4FFFFF7BCFC2078002824
:10232000F3D1002020703949087039490880069996
:10233000890600D559E7FFF7CBFB06980106059AF9
:1023400005D50120154600F0D5FE2A460698002A3C
:1023500005D140063CD4002020702C490870002094
:102360002B49088000F066FF002801D1FFF7B0FB81
:1023700080270025304639462A4600F071FF0228A2
:1023800006D8B178727812020A43C01E904209D171
:10239000FFF780FC20780028E4D01D480088002842
:1023A000E0D002E000202070DAE70422154819A1ED
:1023B000FFF76AFB002800D130E70422114817A17B
:1023C000FFF762FB002800D11BE7114800880CE7EB
:1023D0000F4800880199401807E70920FFF76BFBB9
:1023E0000220FFF768FBFFF785FEC0468C24002023
:1023F0003100ADDEFBFF0000961A0020A81A002075
:102400000018002024190020FEFF0000801A002080
:10241000981A0020B001000000000000B0A70000E2
:1024200000000000B9F9FFFFF0B581B007465F4C2E
:1024300025461435382228463946FFF788FA21699F
:10244000A068002903D088470346A06803E01C2148
:102450004143226853180026002810D02269411EEB
:10246000002A0FD00846009737462E461D46904753
:102470002B4635463E46009F0246A06806E03046A1
:10248000324603E01C224A4321688A186168491ECB
:10249000884210D22169401C002908D000951D46B1
:1024A0001646884732462B46009D064603E01C210F
:1024B000414320684618787840280ADC202822DC2E
:1024C000102834D0202867D15969002000296BD109
:1024D00051E0802822DC412833D042285CD1596960
:1024E0000020002960D1D96800295DD16268511EA1
:1024F000012A59D0A2688A4256D0F168002953D1E6
:102500003069206348E0212831D0222844D119467F
:1025100014315A690020002A2FD145E0822835D095
:10252000812839D1A1680020002935D13CE0D96843
:102530000020002938D02163587E00282CD0E0826A
:102540002AE05969002000292ED1D96800292BD111
:10255000A168002928D06168012925D0D168002907
:1025600022D1516900291FD11069206314E05969F3
:102570000020002918D01946103108682063187E01
:10258000002809D0E0820820A08505E06068A168E5
:10259000421E0020914207D0E268002A284603D05C
:1025A000143418462146904701B0F0BDEC1A0020C3
:1025B000F0B581B005463D4F3969B868002902D0B1
:1025C0008847064603E01C21414338684618012429
:1025D0003748854214DD3748854217D03648854252
:1025E0001CD0364885425ED13068002852D0B4688D
:1025F00000F018FB0146FA68204600F06DF851E043
:102600002F4885420AD02A4885424CD17968B8685B
:102610004A1E00240121904205D344E00024E143F6
:10262000B86800283FD04018B860264800240460ED
:102630002548046025480460254DAC6028680028C2
:1026400031D0E869234988422DD000282BD00024BE
:1026500020466968884226D200F0ECFD002822D18D
:10266000A868E968382670432A681018002902D043
:102670008847002807D0012803D1A8684643286866
:10268000801902F087FFA868401CA860296800290B
:10269000DFD108E07068002805D000F0C3FA0146D9
:1026A000B06888470024204601B0F0BDEC1A002035
:1026B0000200008002000040010000400300008092
:1026C000010000809C1A0020A01A0020A41A0020FB
:1026D000AC220020445010B0F0B583B002920D46F9
:1026E0000190394E002000907060002D15D03C49BB
:1026F00079441C2728463A46FFF7C6F900280CD033
:10270000384C7C447068401C70607843281821461F
:102710003A46FFF7B9F90028F4D10199084601308B
:1027200005D070688842009800D30846B0603560D4
:1027300000250298F0603561244C2B4878442060D5
:102740000920606029487844206129487844E06085
:1027500003202076E5612046183000F0E1FCE061BE
:1027600000F048F81A4805601A4805601A480560E4
:10277000A5602068002824D0E069184988421ED14D
:102780001FE0606885421CD200F054FD002818D17B
:10279000A068E1683825684322681018002902D033
:1027A0008847002807D0012803D1A0684543206846
:1027B000401902F0EFFEA068451CA56020680028C3
:1027C000DFD103B0F0BDC046EC1A0020AC220020DF
:1027D0009C1A0020A01A0020A41A0020445010B017
:1027E0003841000026410000F43E000067FEFFFF74
:1027F000D9FCFFFF7047000081B0F0B590B01646DD
:102800000C460A901593022C00D2F0E10A98002899
:1028100000D1ECE1002E00D1E9E100210A980791F6
:102820002246FFF78BF815A80B903078002800D1CE
:10283000DDE10799C943651E0591BDE13019315DA0
:1028400025290BD103930292431C002020210891DB
:102850000A21019100900490099056E006460A92E0
:102860001EE1334608464BE0472B13DC194630394E
:102870000A2934D2302B089900D11946099D002D20
:1028800000D008990A226A43D218303A0992334696
:1028900008913AE0672B04DD722B09DD732B46D1DA
:1028A0000AE0622B48DC482B55D10122049201E05A
:1028B000682B56D1102201920B9A131D0B93032300
:1028C00018404D1C1168012800D1CEE0022800D12B
:1028D000D0E0032833462846069D16D0E7E02E2B8D
:1028E00000D0CAE030782A2800D0C6E07178731C86
:1028F0000120482904D0682902D0732900D0BCE007
:102900000B990A1D0B920968009102211E4633782B
:10291000761C00222D2BA7DC1046F8D0252B2AD0C0
:102920002A2B00D0A9E0307873289AD0A5E0752B27
:1029300023D0782B18D0A0E0632B00D18BE0642B40
:1029400000D09AE00B98011D0B910068C117421846
:102950004A40C00F16E0582B00D08EE001200490B2
:1029600002E0702B00D088E00B98011D0B910268EB
:102970000020102507E0252071E00B98011D0B9128
:10298000026800200A25069001270A92954212D873
:10299000012428460746294603F008FBA04209D136
:1029A000284678430999491E09910A9988423C466C
:1029B000F0D900E027460024E143069B002B00D11C
:1029C00019460998019140180899CAB2302A06D1CF
:1029D000002B04D00CA92D230B7000230124811E91
:1029E0000D290CD8411E0AD00CA82043069303F0F1
:1029F0005DFC069B0998001901994018441E002BA4
:102A000003D00CA82D210155641C0498002F18D068
:102A1000002801D079A000E07CA009900A983946EE
:102A200003F0C4FA294603F047FB0998405C0CA95F
:102A300008553846294603F0B9FA641CBD420746DA
:102A4000ECD9039B9C4200D31C460CA9029D28464E
:102A500022461F461BE00B98011D0B91006802994E
:102A600008700398401E491C15E0009C059A039BC2
:102A7000069D24E00878002875D00520039F052FC7
:102A80003C4600D30446029D284664A12246FEF738
:102A90005EFF381B29190A910346002800D1A6E0E1
:102AA0003078002805991D4600D085E09FE0059A02
:102AB0001446039B08194078641C0028FAD1019839
:102AC0001028029844D1002C74D008910A988318D9
:102AD000501B8742394600D8014603914A4302926F
:102AE000501C019000202A460A9302995B18099015
:102AF0000899085C0F250540000903998918491CAD
:102B0000022974D30499012903D0002908D13FA1D7
:102B100000E03AA1C0B2085C1870E8B2085C5870D6
:102B20000198904263D0921E0A9B9B1C0998401CFE
:102B3000A042D9D3099005990698081A874200D86F
:102B400007460846784318180A90B818431C1CE03A
:102B50009C4200D31C46224605461F46FEF7F7FE60
:102B6000381B29190DE0039B009F9F4200D31F468D
:102B70002021029D28463A46FEF7E0FE0398C01B3E
:102B8000E9190A910346002831D00998A04287D953
:102B9000041B1D46AC4200D32C4620210A9F384618
:102BA0002246FEF7CBFE2D1B3F190A972B46002D20
:102BB0001DD075E70A9073E70F46079C03E03019B4
:102BC00040787F1E641CC0B2002801D02528F6D1B1
:102BD000AC4200D32C460A9831462246FEF7B7FE97
:102BE00006952B1B0A980219002B00D026E6002020
:102BF00010B0F0BC02BC01B00847C04630313233DF
:102C00003435363738394142434445463031323322
:102C10003435363738396162636465664552524FE0
:102C20005200000080B50449884204D30349884219
:102C300001D200F005F880BD0000D0C0809FD0C058
:102C40007A460249C91C891A401A7047412CD0C0E3
:102C500010B54101104A0A40430E01210B405B426E
:102C60000E4C1C405440820E0A4052420C4B134002
:102C70006340C20E0A4052420A4C14405C40020FAC
:102C80000A405242084B13406340400F0840414203
:102C900006480840584010BDE0FFFF3FB2576A3B6E
:102CA0006D8E5026FA19A11EDD33423DB362142AFF
:102CB000F0B587B005930492074602910E7800257F
:102CC0000120002E03951BD00298401C0690012085
:102CD000002534463246019511464139213AD2B297
:102CE0005D2A5DD8C9B21A295AD3FFF7B1FF014650
:102CF0000698425D600948406D1C002A1446EBD1DD
:102D000005994919C91D5A2903994CD8FFF7A0FF05
:102D1000002E0ED002994C1CFFF79AFF01463E7020
:102D20001F2030404840611C7F1C2678002E0C4636
:102D3000F2D131213970791C06910599002914D0FE
:102D40000024039404990F5D06990E191F2F29D8AA
:102D500016A1CD5DFFF77CFF35707840641C0599A6
:102D60008C42EFD30699091906910624FFF770FFEC
:102D7000641EFBD101210E46484019220BA1069B7F
:102D80000446D4401F2525404C5D1C70541F5B1C1D
:102D9000002A2246F4D1002006998871314602E0CB
:102DA000019900E00399084607B0F0BD71707A728E
:102DB00079397838676632747664773073336A6E3F
:102DC00035346B686365366D7561376C00000000E3
:102DD000F0B587B01F460546012300939340581E67
:102DE000069000260E9801900D9804900C9B002BE5
:102DF000304626D05042059000200646049C00191B
:102E00001C463346049EB3403E781E437F1C039706
:102E1000641E02940FE00B682C465D1C0D60059D3E
:102E20002D183746EE400D4606990E402946254698
:102E3000E6543E46801A9042EDDA029B002B039F37
:102E4000DCD1019B002B0AD0002812D00B685C1C3F
:102E50000C60111A8E4006980640EE5409E0111AD3
:102E60008E4006990E400021049A904202DA002E0C
:102E700000D10099084607B0F0BD01DF704700009F
:102E800080B582B0009007486946FFF7F6FF01AAB7
:102E900011600549884201D102B080BD0420FEF7CF
:102EA0000AFEC04637010060C601009080B582B0BE
:102EB000064801A9FFF7E1FF6A461160044988420C
:102EC00001D102B080BD0420FEF7F5FD00020060D4
:102ED000F102009080B584B000AB07C30648694694
:102EE000FFF7CBFF03AA11600449884201D104B067
:102EF00080BD0420FEF7DFFD7F030060BC0300906F
:102F000080B584B001900291074801A9FFF7B5FF91
:102F100003AA11600549884202D1039804B080BD1C
:102F20000420FEF7C8FDC0462C0500606705009030
:102F300080B588B001AF0FC70A9805900B9806902E
:102F4000074801A9FFF799FF07AA116005498842C0
:102F500002D1079808B080BD0420FEF7ACFDC04642
:102F60003B070060AD07009080B582B00090074835
:102F70006946FFF782FF01AA11600549884202D124
:102F8000019802B080BD0420FEF795FD7F08006027
:102F9000F808009080B586B001AF0FC7074801A9B7
:102FA000FFF76BFF05AA11600549884202D1059819
:102FB00006B080BD0420FEF77EFDC0462C0B0060ED
:102FC000A00B009080B586B001AF0FC7074801A9DC
:102FD000FFF753FF05AA11600549884202D1059801
:102FE00006B080BD0420FEF766FDC046ED2D0060F2
:102FF000492D009080B586B001AF0FC7074801A9E1
:10300000FFF73BFF05AA11600549884202D10598E8
:1030100006B080BD0420FEF74EFDC046EA2E0060DB
:10302000632E009080B586B001AF0FC7074801A995
:10303000FFF723FF05AA11600549884202D10598D0
:1030400006B080BD0420FEF736FDC0462E2F00607E
:10305000742F009080B58AB001AF0FC70C9805900F
:103060000D9806900E9807900F980890074801A9B0
:10307000FFF703FF09AA11600549884202D10998A8
:103080000AB080BD0420FEF716FDC046F33800608C
:103090007638009080B584B000AB07C30748694616
:1030A000FFF7EBFE03AA11600549884203D103A88C
:1030B000008804B080BD0420FEF7FDFC9E3C00604B
:1030C000B93C009080B586B000AF0FC70898049057
:1030D00006486946FFF7D1FE05AA116004498842F7
:1030E00001D106B080BD0420FEF7E5FCBA530060B4
:1030F0001E53009080B582B0009007486946FFF7E4
:10310000BCFE01AA11600549884201D102B080BD10
:103110000420FEF7D0FCC046E16200606F620090C0
:1031200080B582B0009007486946FFF7A6FE01AA65
:1031300011600549884202D1019802B080BD042087
:10314000FEF7B9FC586400601F64009080B582B03F
:10315000074801A9FFF791FE6A46116005498842B8
:1031600002D1009802B080BD0420FEF7A4FCC04646
:103170006E6800607F68009080B584B00190029115
:10318000074801A9FFF779FE03AA116005498842A3
:1031900002D1039804B080BD0420FEF78CFCC04629
:1031A000B8690060C469009080B584B00190029154
:1031B000074801A9FFF761FE03AA1160054988428B
:1031C00002D1039804B080BD0420FEF774FCC04611
:1031D000AC6B00605D6B009080B584B000AB07C342
:1031E00007486946FFF749FE03AA1160054988426E
:1031F00002D1039804B080BD0420FEF75CFCC046F9
:10320000D47000608770009080B584B00190029106
:10321000064801A9FFF731FE03AA1160044988425C
:1032200001D104B080BD0420FEF745FC1C72006093
:10323000F372009080B582B0074801A9FFF71DFE28
:103240006A4611600549884202D1009802B080BDEB
:103250000420FEF730FCC046CF7300607F730090FF
:1032600080B584B000AB07C307486946FFF705FE89
:1032700003AA11600549884203D103A8008804B05D
:1032800080BD0420FEF717FCD17400602B74009001
:1032900080B50648FFF7C6FC02460D20410101201B
:1032A00043030348FDF7BCFD80BDC046807FD0C00E
:1032B000781B002080B5FDF7CBFD80BD80B5FDF704
:1032C000D9FD80BD80B5FDF713FEC08880BD80B5F7
:1032D000FDF70EFE006880BD10B5FDF709FE04681D
:1032E000FDF706FEC28809482146FEF70DF90028C1
:1032F0000BD10648214600F093FB002805D1034876
:103300000349224600F0B4F9002010BD181D00202A
:103310004000C000F0B589B05948007B002800D0BB
:10332000ACE0584900220A800A82CA814A82564883
:1033300088804880C880584878440290574878442C
:103340000190574878440090524F56487844039073
:10335000D6B2022E08DC002E029916D0012E0CD017
:10336000022E11D1009910E0032E08D0042E08D0AF
:10337000052E09D14C49794407E0019905E043A1A4
:1033800003E04A49794400E041A13D488368069240
:10339000026800252846FEF7D5F9069A0446002C57
:1033A00069DB384801468B189D73500009184C8022
:1033B00008A90D7007AA15707960FA600221398199
:1033C00039823D807D80BD820622FA750399085CB2
:1033D000B8750E330593022E049208DC002E0FD030
:1033E000012E10D0022E16D13249794414E0032E5A
:1033F0000CD0042E0CD0052E0DD12F4979440BE0B2
:103400002B49794408E02D49794405E01FA103E0E8
:103410002B49794400E01EA108A8012203F064F8BA
:103420000820385E79680818EE4385550498F875C9
:1034300029463D8048B2B0420FDD0020B8822046C8
:1034400000F020F941B2B142F4DD059A1178491C2F
:10345000117039884D1C0146EBE705980078094941
:103460000A46118809181180069A521C002802D0B9
:10347000062A00DA6CE701200149087309B0F0BDA3
:10348000302100201C210020FFFF00006665650040
:103490003F000000402100200C350000CE4300001A
:1034A000093500000A35000084430000A4430000F1
:1034B0004234000063340000FE4200000443000078
:1034C0001643000080B5FFF725FF0248008800B2D0
:1034D00080BDC0461C210020F0B581B035490A7B73
:1034E0003549002A63D0354F7B6800221A70FB688B
:1034F0001A70491C324B1B881BB2984257DA3A802B
:103500000028154616D000231E461D46A9B22C4C95
:1035100061188F7B691C5B1C1CB2BC4200DB0D4632
:103520000021BC4200DB0B46761CB1B28142EDD3D8
:10353000224F3B80BA82A8B2460024487844805D7E
:10354000B8750620F875E9B27868022908DC002908
:103550000FD0012910D0022916D11E49794414E058
:1035600003290CD004290CD005290DD11A4979441E
:103570000BE01749794408E01849794405E011A1A6
:1035800003E01749794400E00FA108243A5F521E76
:1035900002F0AAFF385F796808180021CA438154F5
:1035A000074880190221405E00F06CF8014608B21D
:1035B00001B0F0BD30210020FEFF000040210020BE
:1035C0001C210020666565003F0000001A330000E2
:1035D000D0320000F13200008C4100009241000026
:1035E000A4410000F0B581B01E4E746800271E4D46
:1035F0007D442046294602F0FFFE7F1C002803D0B0
:1036000064351C2FF5DD0DE00827F05F421E3235D2
:103610002046294602F068FFF05F71680818002113
:10362000CA438154F4680027104D7D442046294642
:1036300002F0E2FE7F1C002803D06435072FF5DD81
:103640000DE01027F05F421E32352046294602F079
:103650004BFFF05FF16808180021CA43815401B0A4
:10366000F0BDC04640210020723200008C3D0000B9
:1036700010B5034C0FC40020103C207310BDC04691
:1036800030210020F0B58BB0C200934909688A1838
:103690001479E31EDFB2914DEB7D0893AE7D904B24
:1036A0000A93022F09932BD3002E29D0089E002EB7
:1036B00026D086B23046FDF7D3FF07B2012C47D0A3
:1036C000022C00D003E1012F00DA00E1002482483F
:1036D0000268A1B23046FDF793FFE97D491EE97506
:1036E000FFF7D0FFE97D491CE975099081B2601CA4
:1036F0000A9A914200D0EAE004B2BC42E7DBE6E07D
:10370000A88A2988884220D10620115E0820105EF0
:1037100008900791441A27B210200690285E461E92
:103720003846314602F0CCFC421C2004012800DA65
:10373000A5E038463146144602F0A8FD2046461E54
:10374000002900D19CE006469AE0401CA882BEE019
:10375000012F00DABBE00396686802F091FE00B228
:103760000190002102975C4807463A6808918EB2A2
:10377000039C20463146FDF7A5FF07903A68204696
:103780003146FDF7CFFF014628880A9EB04259D046
:1037900004910023D84305906F6838780028069379
:1037A0001BD02E89B81905994354384602F068FE9B
:1037B000311A0A9BC9180122194200D011468EB253
:1037C000002E069B09D00A9908403F18384645A1AB
:1037D0003246FEF7BCF8069BBB550798C0003E4931
:1037E0000A46116808180621465E04892F89686810
:1037F000C11992680092059A8B540796A61B34460D
:103800000A9D2E40059002F03BFE391A49190A46DE
:103810002A40964200D821460F460A9E3740304A39
:1038200011422E4D04990DD00799009A511830403D
:10383000059A161830463A46FEF789F80499069814
:10384000F0550A9EA87D401EA875E87D401EE875CB
:103850000846FFF717FFA97D491CA975E97D491C9A
:10386000E97581B2B142029F30D168680021019AA6
:1038700081540898401C01B2B94228DA73E7164611
:10388000E868002707700220295E30B281421EDA04
:1038900006982A5E501E4143079BC91809B2089B2F
:1038A0005B1A0124E403234211D10B4CA468611874
:1038B0000A9C1C40944200DB03461CB2E868224686
:1038C000FEF745F8E8680755099600E00990099861
:1038D00000B20BB0F0BDC0463021002040210020D6
:1038E000FFFF00002F000000F0B587B0069108260A
:1038F000825F47880025022F059527D300250124E4
:103900000095E10043181979002938D00621595E45
:103910008D4216DA04920396029701910699495D49
:103920000027194A7A44D65D7F1C01228E4227D097
:10393000052FF6D96D1C01998D42049A039E029FB2
:10394000ECDB995F4D1C641CBC42DADB954201DD67
:10395000059A15E016460D4878440699495D0029F8
:10396000F6D00023C45C5B1C01228C4208D0052BDE
:10397000F8D9691C0022B5420D46EEDB00E0009A42
:10398000104607B0F0BDC046B23D00007E3D0000CD
:10399000F0B587B0039106467188012000293DD01B
:1039A000009000210291C8003018007901282DD123
:1039B000029880B205903146FDF752FE049002282D
:1039C00024D30021059801913246FDF77BFE07467E
:1039D00001250697A9B205983246FDF773FE074602
:1039E000F8003446321D10180223C05E039E3118C1
:1039F0000698C0001018C05E301802F0FDFC6D1C67
:103A000000280ADC049885422646E2DB0299491C1C
:103A100070888142C6DB009800E0019807B0F0BDD5
:103A2000F0B581B00C460546FFF75EFF012801D1D5
:103A30002AA611E028462146FFF7AAFF01280AD14D
:103A4000002039A12A462346FDF77CFE01303F4F76
:103A500005D138A600E02BA6304601B0F0BD00200D
:103A60003BA12A462346FDF76DFE80B2B84201D144
:103A70003AA6F1E700203FA12A462346FDF762FE61
:103A800080B2B84202D13C4E7E44E5E700203B497B
:103A900079442A462346FDF755FE80B2B84202D14A
:103AA000374E7E44D8E70020364979442A462346DB
:103AB000FDF748FE80B2B84202D1334E7E44CBE7D8
:103AC00000263249794430462A462346FDF73AFE1D
:103AD00080B2B842C0D12E4E7E44BDE74A534F4E0D
:103AE00020436F6E7461696E7320776869746573C3
:103AF0007061636520696E2074686520636F727001
:103B0000757300004A534F4E2044696374696F6EA9
:103B1000617269657320617265206E6F7420736FC6
:103B20007274656400000000636861696E5F6964B7
:103B3000000000004A534F4E204D697373696E6751
:103B400020636861696E5F6964000000FFFF000028
:103B500073657175656E6365000000004A534F4ED2
:103B6000204D697373696E672073657175656E6347
:103B70006500000066656500543C00006A3C00007A
:103B80004B3C0000623C0000433C0000643C0000F1
:103B9000433C0000F0B585B0344A12788324002AF3
:103BA00002D03B4A7A4409E00A9A452A02D8394AA7
:103BB0007A4403E0072907D1374A7A440223214691
:103BC00000F0B3FC05B0F0BD0292019403904020D8
:103BD00004931F5C002F18D0052F049E07D1304698
:103BE000413023A10522FDF74FFF00282CD041369C
:103BF000002422A5E0B2032102F05EFA305D695C88
:103C000041403155641CA742F4D145200499085C19
:103C10004630029A824211D1413117483A46FDF7A7
:103C200096FE1948078019480721017009200F499D
:103C300008700121039800F04DFCC3E7174A7A444D
:103C4000022303980199BBE70B4E03223270701CCC
:103C50000AA1FDF77CFE301D09A10422FDF777FEC5
:103C60003078431D039801993246A9E7961A00203F
:103C7000F1D00000000000002419002043534D0043
:103C80009000900000000000981A0020801A002088
:103C90008B3B0000813B0000793B0000F73A0000BD
:103CA000F0B581B01D460E460446284600F002FCE1
:103CB000012804D168460421FFF722F904E0684690
:103CC00004222946FDF743FE174F082238463146A5
:103CD000FDF73DFE3846083069460422FDF737FE01
:103CE00002203873002078730121B973F873387497
:103CF000284600F0DFFB0146201D8625012906D15C
:103D000029467931C9B20422FDF718FE03E069465D
:103D10000422FDF71CFE044A11232046294600F028
:103D200004FC01B0F0BDC04624190020F0B585B0F8
:103D300015460C460490A07961790E020643A078DE
:103D4000029061782778093A90B2832303931F4B3E
:103D5000864203D0ED1F2B409E421BD13246002FDE
:103D600008D01B4A7A4402230498039900F0DDFB33
:103D700005B0F0BD022917DC012920D002291BD192
:103D800090B269460860E31D002204980299FFF78B
:103D900001FFEDE7D0B28642E1D0E8B286422A4682
:103DA000DDD00C4A7A44DEE703290BD0C12903D1C8
:103DB000094A7A440423D7E70A4A7A44D3E7074AF0
:103DC0007A44D0E7064A7A440823CDE7FFFF000093
:103DD000DF3900008D3900008D3900006D39000099
:103DE000713900008B39000080B5C1698A784B7841
:103DF0001B0213430A78812A09D0832A0CD0862A11
:103E00000ED1C91C031D0022FFF74AFF80BDCA1C4A
:103E1000812100F08AFB80BDC91C1A46FFF786FF8E
:103E200080BD000070B50D460146012A11D1094C34
:103E300020462A46FDF78BFD60194026721B00259F
:103E40002946FDF77BFD8120214632462B46FDF7B2
:103E5000CDFE70BD381B0020C16002820022C282EC
:103E600082762B23C2542A23C2548284C161026207
:103E700070470000F0B583B00D4604462B20215C4E
:103E800020462B30002902D00021017061E0202162
:103E9000615CC91EC9B223462033012959D8218B40
:103EA000E28A914224D904230020012D00D0034648
:103EB0000290A07E03270126002800D037461F432A
:103EC0004023DE1B891AB14200DC0E46F119019134
:103ED000012D08D1211D2148042202920093FDF7F3
:103EE00036FD009BA07E00280FD0FF30029918E01D
:103EF0002FD10021E182A17601702A2021549980DE
:103F00001960E068E0611448BFE7E05C029B99B289
:103F1000124A50540120184381B2637E5354411C0D
:103F2000207E89B20D4B5854E169002905D0B2B208
:103F3000D819E38AC918FDF70AFDE08A8019E082E2
:103F4000A07E401CA076019881B204482A46FFF763
:103F500069FF03B0F0BDC046961A0020381B002050
:103F6000B0B52B2101244454011D0B4D04222846D9
:103F7000FDF7EDFC83202871002068710220A871F4
:103F80006920E8717C20C043801C287209212846E2
:103F90002246FFF747FFB0BD381B0020B0B52B21EC
:103FA00001244454011D084D04222846FDF7CFFC8E
:103FB0008820287100206871A871072128462246B0
:103FC000FFF730FFB0BDC046381B0020F0B585B00C
:103FD00004462520235C274625370020052B19D0D1
:103FE000049008784B781B0203438878CE78360219
:103FF0000643300418432379667936021E43A379B9
:10400000E5792D021D432B043343834204D0052060
:104010003870049805B0F0BD0E790D1D608C012339
:104020000393304B00281ED002932423E55C2346E3
:104030002433AE42EBD1258B0095751C1D70009B7F
:104040001E1A531F05250195B34200DB0190B342B0
:1040500000DB009A019BD31A18186084029A1A4058
:10406000208D491D25E07C20C043401DC0B2029038
:10407000832001900298864203D12046FFF78EFFED
:104080002DE002951D46487903028879C01C18432B
:1040900001998E42BBD1218B8842B8D1111F814238
:1040A00000DB0146618424220020A0542A460A40F5
:1040B0000299FEF7EFFF2085218B628C8A420ED396
:1040C000E18C8842A3D106203870002565842A201F
:1040D000205C012803D12046FFF742FF3D70039882
:1040E00098E7C046FFFF0000F0B58BB0044623728E
:1040F0002020205C27462037852503280ED00991F3
:104100000A922A21615C26462A36002913D02046CD
:1041100009990A9AFFF75AFF002873D1E04806214F
:104120000172042139700021A1760830E061E1823A
:10413000012020835FE0042809D10020E082A076DE
:104140002B2160543070B8803860E068E061042151
:1041500000200893012B00D0014601230A461A4390
:104160000A9890423DD3049208980128069105953B
:10417000079307D1201D04220999FDF7E8FB069952
:10418000079B059DE08AC74A00280FD008980128A0
:1041900022D120461230211D15460422FDF774FC61
:1041A00006992A46079B059D002815D00326084638
:1041B000039630430E460A99814212D30999881911
:1041C000029088570E4629467A3149B2884237DD37
:1041D000B3480421017207E0022008430A99814292
:1041E00012D2AF480572042139700021A17608303F
:1041F000E061E18223833A3540202554217A20462C
:10420000FFF738FE0BB0F0BD2120205C08998842F2
:104210004DD13878012856D103920898012800D052
:1042200085E0211D042509982A461E46FDF72CFC31
:10423000334600287BD09A48062101723D70F6E093
:10424000089B012B16D1387801281FD1201D21464B
:104250001231154604220190FDF716FC2A46089BF0
:10426000059D002806D002980078691CC9B28842D2
:1042700000D0F6E03878012808D1012B00D082E088
:1042800002980078691CC9B288427CD10220069944
:104290000843305C0499715C09020143208AC01E06
:1042A00081421EDD7E480399017204216EE028469A
:1042B00008307B490872042038700020A07608314D
:1042C000E161E08296E70898012881D10020E08230
:1042D000A0762B2160543070B8803860E068E061CF
:1042E00090E7029800788128079B04D0862859D04F
:1042F000832800D0ACE009910392089801285FD18F
:10430000261D69497944042530462A46FDF7BCFB41
:10431000002807D06549794404223046FDF7B4FBF4
:1043200000284DD15E480B2101723D70B0E0069827
:10433000099A1118105CA27E90422FD10A98049A13
:10434000851AE08A228B121A954200DB1546039EDD
:104350002E40E2691018491C3246FDF7F8FA089819
:10436000012807D1E08AE1690918E08C3246FEF79E
:1043700091FEE084E08A4019E082A07E401CA07695
:10438000079B089D45E046480421017239700021D1
:10439000A1760830E061E1820798CAE6404804212E
:1043A000017243E00898012852D109910392201D1F
:1043B0003F49794404263246FDF766FB002863D066
:1043C0000A980699461A0998C01C8642039D00DB8C
:1043D00006460A903540E06902992A46FDF7B7FA89
:1043E000089B012B06D1E16900202A46FEF752FE08
:1043F000089BE084E6820A98208321202354002031
:10440000A07620461230211D04221D46FDF79FFA9A
:10441000079BE08A012D01D1218B13E0218BCA1C5F
:1044200090420FD91E4803210172042139700021E6
:10443000A1760830E061E182238305993A3140207A
:104440002154DBE6884206D2002060633B70D9E647
:1044500013480372C7E6022038702046FFF7C4FCF9
:10446000D0E60F4C042220460199FDF770FA3A3548
:10447000257100206071079AA2710620E071082161
:104480002046FFF7CFFCBDE605480B2101723E70C8
:104490000021A1760830E061E18207982083CCE713
:1044A000381B0020FFFF00004334000035340000BB
:1044B0009933000080B5064979440422FDF7E4FAF7
:1044C000014601200022002900D0104680BDC046D0
:1044D0008F32000080B52A22835C02462A320129ED
:1044E00006D1002B08D101211170FFF739FD80BDE5
:1044F000012B01D10220107080BD01462A200A5CE8
:104500000120002A10D0012A01D100207047252067
:104510000A5C0020062A07D12B200A5C012000211A
:10452000002A01D0084670477047B0B52A24045DC0
:10453000002C09D0012C15D02524045D062C11D1A6
:104540002B24045D002C0DD12024032505550024C7
:104550008476C261C4820383402281542121415C5C
:10456000FFF788FCB0BD0000024900200860024946
:1045700008607047582100205C21002010B50748D2
:104580004F21017000244470012181700221C1700B
:104590000421FEF739FE204610BDC0460018002059
:1045A00070B582B06D464F262E7000246C700220CC
:1045B000A8700320E8702C7105212846FEF724FE20
:1045C0002E706C700120A870E87004212846FEF758
:1045D0001BFE204602B070BD10B582B001A84F216D
:1045E000017000244470012181700221C1700421F6
:1045F000FEF70AFE204602B010BD0000B0B582B042
:104600000E48002404600E48046068464F2505707B
:104610004470052585700425C5700125057141711B
:10462000032A02D8D000074CC44068468471C37185
:104630000821FEF7E9FD002002B0B0BD582100209E
:104640005C2100200104030210B582B068464F22AD
:10465000027000244470052282700422C27001227C
:10466000027141718471C4710821FEF7CDFD2046AD
:1046700002B010BDB0B582B00D4668465021017041
:104680000024447003218170C57040210171447180
:104690000621FEF7B9FD8020054201D1074800E060
:1046A000054801687F2215400122AA400A430260A2
:1046B000204602B0B0BDC046582100205C21002039
:1046C00070B582B00D4668465021017000244470D8
:1046D00003218170C5708026067144710621FEF7A2
:1046E00093FD354201D1074800E0054801687F226B
:1046F00015400122AA4091430160204602B070BDDE
:10470000582100205C2100208020014201D0064871
:1047100000E0044800687F22114001228A400240E4
:10472000D0B270475C2100205821002010B582B023
:1047300068464F22027000244470022282700322D5
:10474000C27001710521FEF75FFD204602B010BD69
:10475000B0B582B01C461546684650220270E21C75
:10476000130A43708270C1702021017144710621C7
:10477000FEF74AFD28462146FEF746FD002002B01E
:10478000B0BD10B582B06846502303700024447059
:1047900003238370C1703021017142710621FEF73D
:1047A00033FD204602B010BD70B515460E460446D6
:1047B0000220002C11D04D208100204601F06CFD1C
:1047C000002E02D0112000012650FC20012121548E
:1047D00025702046FFF7C8FE0020C0B270BD70B53E
:1047E0000446FC2001212154452080002518002684
:1047F000F0002858002806D04068FEF713FA024659
:10480000217920469047761C032EF1D12046FFF7F0
:10481000E3FE2046FFF7B2FE002070BD0223002A0F
:1048200007D00023022804D8C000081845218900B9
:104830004250D8B2704780B5FFF7B2FE002080BD6D
:10484000F0B581B00C460546452080002F180026A3
:104850002846314600F07CF9002808D0F00038588E
:104860000068FEF7DFF90246284621469047761C8D
:10487000032EEDD1002001B0F0BDF0B581B00C46A3
:104880000546452080002F1800262846314600F0B6
:104890005FF9002808D0F00038584068FEF7C2F9E8
:1048A0000246284621469047761C032EEDD1002073
:1048B00001B0F0BD70B504462120C600A5192846F8
:1048C00000F0A7FBF4200121215087204000205A4E
:1048D000F8216050A15D1F200840022808D001285F
:1048E0000BD000280ED12046294600F03FF90EE0FB
:1048F0002046294600F002FB09E02046294600F048
:10490000D8FA04E0802001402046FFF7B3FE0020E3
:1049100070BDF0B583B002920446019100291ED00B
:104920004520800025182646FC36002720463946BB
:1049300000F00EF900280ED0F800285880690028F1
:1049400009D03178032906D1FEF76CF903462046D9
:104950000199029A98477F1C032FE7D135E0F42094
:104960002058032831D1902020588C2161582246AC
:104970008C3281420AD9091A1160814200D3014662
:104980008AB22046029900F035FD1EE045208000E5
:1049900026182746FC3700252046294600F0D8F87F
:1049A00000280CD0E80030580069002807D039787A
:1049B000032904D1FEF736F90146204688476D1CCD
:1049C000032DE9D1204600F01CFD002003B0F0BD0E
:1049D000F0B581B00446009100291DD0452080002B
:1049E00027182546FC3500262046314600F0B0F851
:1049F00000280DD0F00038584069002808D02978E8
:104A0000032905D1FEF70EF902462046009990478A
:104A1000761C032EE8D151E0F4202058022845D11D
:104A2000E069256AA8420BD9401BE06113210A0105
:104A3000A1584919A15082B2204600F0CDFC35E0C2
:104A4000A6693046294601F037FBAE420FD3002954
:104A50000DD1F82020582746F837864207D2002586
:104A6000204629462A4600F0B7FC3D601EE045205E
:104A7000800026182746FC3700252046294600F0EE
:104A800067F800280CD0E8003058C068002807D02C
:104A90003978032904D1FEF7C5F801462046884736
:104AA0006D1C032DE9D1204600F0B7FC0120010266
:104AB0006018615C012901D100210170002001B062
:104AC000F0BD70B504469020402121502162FC20A9
:104AD0000121215445208000261800252046294622
:104AE00000F036F8002808D0E80030584068FEF79B
:104AF00099F802462179204690476D1C032DEDD18F
:104B0000002070BD01740020704700207047002015
:104B1000704770B50446FC20205C032816D1452060
:104B20008000261800252046294600F011F80028AC
:104B300009D0E8003058C069002804D0FEF772F8A8
:104B40000146204688476D1C032DECD1002070BD26
:104B500002460020022908D8C80010184521890003
:104B600041580120002900D10846704780B54A7895
:104B7000042A08DD072A0FDC052A14D0062A1BD1D7
:104B800000F021F81DE0002A10D0012A17D0032AD6
:104B900012D100F03BF914E0082A0AD0092A0BD1FF
:104BA00000F0C3F80DE000F09BF80AE000F00BF90C
:104BB00007E000F0F1F804E000F071F901E000F026
:104BC00044F9002080BDB0B582B00D460446698826
:104BD000080A052813DC01281CD0022825D0032848
:104BE0003BD1C8B202283DDC002865D001286DD039
:104BF000022832D1112000012058C0680EE006289A
:104C00001ED0072826D00F2827D1112000012058B8
:104C1000C06903E01120000120580068FEF702F887
:104C20000246207C01A9904734E0452080002058AE
:104C3000002100282FD0217C002925D0C06A24E043
:104C4000207C002809D1452080002058002804D06D
:104C5000406B1AE0207C00280FD02046294600F047
:104C60001EF927E003282CD0042834D00528F4D1DD
:104C70001120000120588069D0E74520800020588D
:104C80000028EAD0006B00E0806AFDF7CBFF014608
:104C900001A88847014601A80288002A0AD0E888AE
:104CA000002807D0824200D3024601A80280204695
:104CB00000F07CFB02B0B0BD11200001205840681C
:104CC000ACE71120000120580069A7E7112000017E
:104CD00020588068A2E711200001205840699DE714
:104CE00070B50446888800280BD1C888002808D1F0
:104CF00048887F260640FC20205C2546FC3503289A
:104D000003D1204600F0CBF870BDFE202654F1B24E
:104D10002046FFF70BFD204600F073FB0220012127
:104D2000002E00D10846287070BD70B50D460446AF
:104D3000AE78022E1DD2FC20215C2046FC300329D7
:104D400007D0022915D1002E22D066600321017000
:104D500009E0002E12D06068864219D0C1B2204608
:104D6000FFF78BFD666020463146FFF769FD02289C
:104D70000ED12046294600F092F870BD0221017044
:104D8000666020463146FFF778FD204600F039FB8B
:104D9000204600F036FB70BD80B5CA88012A0AD1D2
:104DA000FC22825C032A09D0022A04D100218160FE
:104DB0000146083103E000F072F880BD011D0122B8
:104DC00000F0F4FA80BDB0B50446FC20205CFE2261
:104DD0000240022A16D10120E060412080002158C3
:104DE00025460C350320002905D0204600F015FB90
:104DF000E16802200843E06002222046294600F0D4
:104E0000D5FAB0BD204600F04AF8B0BDB0B50D46A9
:104E100004466888012817D14120800001212150D3
:104E2000287902280DD8C000201845218900405853
:104E3000002806D08068FDF7F5FE02462046294688
:104E40009047204600F0DDFAB0BDB0B50D460446EF
:104E5000FC20205CFE21014002291BD1688801282A
:104E60001CD14120800000212150287902280DD832
:104E7000C0002018452189004058002806D08068CD
:104E8000FDF7D0FE0246204629469047204600F016
:104E9000B8FAB0BD2046294600F001F8B0BD10B503
:104EA00004468021FFF7E6FB00212046FFF7E2FBE6
:104EB00010BDB0B50D460446FC20205C032817D178
:104EC0002879022814D8C0002018452189004058AC
:104ED00000280DD08068FDF7A5FE02462046294631
:104EE0009047E888002807D1204600F08AFA03E0BE
:104EF00020462946FFF7D3FF0020B0BD70B50D4610
:104F000004462878602101402E79202910D1022EF4
:104F10000ED8F0002018452189004058002807D0FD
:104F20008068FDF77FFE02462046294690476EE0E6
:104F30006878002817D001281ED0032867D1FC20EC
:104F4000205C03281CD16888002808D180203043C9
:104F5000802804D020463146FFF78CFB2E79022EA4
:104F600052D8F00043E0FC20205C032818D002282F
:104F700011D170060AD14AE0FC20205C032829D018
:104F8000022808D180203043802840D02046314676
:104F9000FFF770FB3BE020462946FFF780FF36E035
:104FA000254614352046843080210E4200D1054626
:104FB00020463146FFF7A8FB0121002800D1014619
:104FC0007F2006403001295029180222204600F097
:104FD000EDF91CE06888002819D1700614D020462D
:104FE0003146FFF76DFB287902280DD8C000201844
:104FF000452189004058002806D08068FDF712FE40
:105000000246204629469047204600F0FAF9002043
:1050100070BD0A7802704A7842708A78CB781B0299
:10502000134343800A794B791B02134383808A79A7
:10503000C97909021143C1807047F0B583B00D46AC
:10504000044602A80027078001A80770297860207D
:105050000840002810D0202838D1687801460A3945
:10506000022933D302281CD003281AD0204629460F
:10507000FFF715FF022729E068780B2814D00A28CB
:105080000FD0062822D16888000A002721280FD0D7
:1050900022283A46394616D102AE304600F058F87A
:1050A0000AE001A901220EE0204600F0AAF90DE075
:1050B00002AE304600F032F801463288E88882427B
:1050C00000D302463280204600F070F9F8B203B0F7
:1050D000F0BDF0B581B0044682210326402532465A
:1050E0002B46FFF78BFA02272046394632462B46DD
:1050F000FFF784FA204639462A46FFF742FB002094
:1051000001B0F0BD10B504468221FFF79DFA0221DF
:105110002046FFF799FA002010BD000043218900C6
:10512000084A515C0922002904D0012905D1074908
:10513000794404E00449794401E0002211460280E8
:105140000846704760210020262600002026000027
:10515000F0B581B00246432080001449085C222447
:1051600000281AD001281BD110488121032740268E
:1051700000923A463346FFF741FA01250B4829468B
:105180003A463346FFF73AFA084829463246FFF7CF
:10519000F8FA009A0748784404E00548784401E0AA
:1051A00000242046148001B0F0BDC04660210020DC
:1051B000EB250000CF250000F0B581B00446812129
:1051C0000326402532462B46FFF718FA01272046D2
:1051D000394632462B46FFF711FA204639462A4611
:1051E000FFF7CFFA002001B0F0BD000080B5012923
:1051F00003D103480121FEF73DFE002080BDC046DB
:10520000A81A0020B0B5144601290DD1012540226D
:105210002946FFF7B6FA2846FCF7ACFC02460348DD
:1052200021462B46FEF760FF0020B0BDA81A0020E3
:1052300080B5022903D103487844FCF7A9FB00207C
:1052400080BDC046FDC9FFFFB0B5144602291BD181
:1052500002214022FFF795FA0C4D2878002813D13F
:105260000220FCF787FC02460C4878442146FCF7F4
:10527000BDFA022808D101202870054807210170D5
:1052800004480068044908800020B0BD801A00204E
:10529000961A00201C190020981A0020CBC9FFFF85
:1052A00012200880014878447047C04696250000C7
:1052B00004200880014878447047C04698250000C3
:1052C0000E200880014878447047C0468C250000B5
:1052D0000E200880014878447047C0468A250000A7
:1052E0000A200880014878447047C046882500009D
:1052F0000E200880014878447047C0466A250000A7
:105300000E200880014878447047C0465A250000A6
:1053100070B504464D208500164800212A46FCF74A
:105320000DFB002C22D0134C0026204631462A4685
:10533000FCF704FB1249794420463246FFF734FA61
:10534000104A7A4430462146FFF768FA01200E4A97
:105350007A442146FFF762FAFF2252320648074993
:10536000FEF77AFD2046FFF766FA70BD0148FFF7A9
:1053700036FA70BD60210020A81A002024190020F0
:10538000762400008A240000B42400004921018012
:10539000014878447047C046E62400000A21018095
:1053A000014878447047C04622250000B0B50C463D
:1053B000F421022343508261C26113210901445048
:1053C000016A8A4200D30A4693B200252946224642
:1053D000FFF7BEF92846B0BDB0B50C46016A8A4257
:1053E00000D30A4693B2002529462246FFF7B0F9BA
:1053F0002846B0BD10B500242146FFF7C2F920466B
:1054000010BD10B5F421042242500024214622464A
:105410002346FFF79DF9204610BD10B5F421052263
:105420004250002421462246FFF7ABF9204610BD2A
:1054300080B503480068002800D0804780BDC04682
:105440009822002080B503480068002800D08047DB
:1054500080BDC0469C22002080B5034979440020CD
:105460000246FDF739F980BD8425000080B5034967
:10547000794400200246FDF72FF980BD7025000019
:1054800080B505490968002904D00022034B7B44FC
:1054900000F0C2FC80BDC046942200203301000011
:1054A00010B50C480178F0220A40027000244460D4
:1054B0008460094809A1072200F0F4FE09480B495D
:1054C000794401600848046000F086F800F010FAA2
:1054D00010BDC046A0220020C1180020636F736D6C
:1054E0006F730000982200209C22002095FFFFFF90
:1054F000B0B504466078532808DD60281DDC0146FD
:10550000543902292FD3602810D03BE0014652398C
:1055100002290BD350282ED0512833D11C480078B3
:105520000F210140002003292CD02CE018480078DE
:1055300001070020002926D124E0612813D071281A
:1055400020D107212046FCF7A9FD7D21CD0041197E
:105550000D48814204D307212046FCF79FFD4019E6
:105560000A4948610EE00A4800780F2101400020F6
:10557000012907D007E0064800780E2101400020ED
:10558000022900D12046B0BDB80B0000AC2200209B
:10559000A022002080B5FCF73FFD80BD80B5034808
:1055A0000021B022FCF7CAF980BDC046AC22002021
:1055B00080B50349794400200246FDF78DF880BD8F
:1055C000B824000080B50349794400200246FDF765
:1055D00083F880BDA8230000F0B581B0664C6368F5
:1055E000664D28460A30132165A2FDF705F9A36828
:1055F00028461D30402165A2FDF7FEF85D35C0212B
:1056000065A22846FDF7F8F820780F21014002290D
:1056100000D08DE0C02161A200952846FDF7ECF88E
:10562000614F6648784438600A207860644878445E
:10563000386164487844F860032038760025FD61BD
:1056400038461830FDF76CFDF861FDF7D3F8FCF72C
:105650008FFBFCF793FBBD603868002828D0F86901
:105660005249884224D0002822D0002578688542FB
:105670001ED2FDF7DFFD002819D1B868F96838257A
:1056800068433A681018002902D08847002807D0DC
:10569000012803D1B868454338684019FCF7BCFCC1
:1056A000B868451CBD6038680028DFD100E0BD68DF
:1056B0007E683F4880210022FDF7D2FDB5422DD201
:1056C0003B4D3868002820D0B868796888421CD2E1
:1056D000FDF7B0FD002818D1B868F9683826704386
:1056E0003A681018002902D08847002807D00128FE
:1056F00003D1B868464338688019FCF78DFCB86858
:10570000401CB86039680029DFD17E68BC68802100
:1057100000222846FDF7A4FDB442D2D3FCF7D8F905
:10572000234880210022FDF79BFD134C2078009D2B
:105730000E21014002291BD1C021234A7A44284668
:10574000FDF75AF81B48052101700120C0070146EA
:105750002C31194A1160014676315160616801436C
:1057600091600020D060A06810612846FBF74AFCD9
:1057700000F0ACF901B0F0BDA02200206C230020A5
:105780004163636F756E742025750000496E646512
:1057900078202575000000002E2E2E002E2E2E2E95
:1057A0003F2E2E2E2E000000AC220020445010B0C0
:1057B00000180020C0180020981800208024000045
:1057C0009B010000B9FEFFFFE521000080B53E49C6
:1057D0003E4A904217DD3E4A904227D03D4A9042D1
:1057E00032D03D49884253D13D4801780F230B40C8
:1057F0000222012B02D0002B4AD10122F0231940B2
:105800001143017040E0354A90422CD02F4A90421B
:105810003ED1334B18780F22024018460830012A37
:1058200038DC002A42D0012A41D031E02C480278ED
:105830000F23134002460832012B02D0002B27D140
:10584000021D10680A301DE0254802780F2313401E
:1058500002460832012B02D0002B19D1021D10681C
:10586000401809380EE01E4802780F231340024604
:105870000832032B14D0012B02D0002B08D1021DBB
:105880001068401808401060FFF7A6FE00F030F8DE
:10589000002080BD022A0FD0032AF9D1114800E070
:1058A000114800680028F3D08047F1E7181D02680E
:1058B000521C0A400260E7E70C4979440020024686
:1058C000FCF70AFFE4E7C046FFFFFF7F020000800D
:1058D0000200004001000040030000800100008041
:1058E000A0220020982200209C22002026210000D7
:1058F000B0B5224C2348784420600A2060602248DA
:105900007844206121487844E06003202076002517
:10591000E56120461830FDF703FCE061FCF76AFF03
:10592000FCF726FAFCF72AFAA5602068002824D0A4
:10593000E069134988421ED11FE0606885421CD28D
:10594000FDF778FC002818D1A068E1683825684385
:1059500022681018002902D08847002807D00128A3
:1059600003D1A068454320684019FCF755FBA068A7
:10597000451CA56020680028DFD1B0BDAC22002006
:10598000445010B0AE210000C9FEFFFFE7FBFFFF4F
:1059900080B50A480178F0220A40032111430170C2
:1059A00007498A68074B1A404260096919408160BB
:1059B000FFF712FEFFF79CFF80BDC046A02200202B
:1059C00098180020FFFFFF07034B18600348016091
:1059D000034802607047C0469422002098220020AD
:1059E0009C22002010B50C4C21600C4C22600C490C
:1059F0000B600C49029A0A600B4903220A70488026
:105A00000020C8800120088100F062F82168002988
:105A100001D00020884710BD5C23002060230020B7
:105A200064230020682300206C23002080B50448F4
:105A3000C188491EC1800321017000F049F880BD72
:105A40006C23002080B50448C188491CC180032113
:105A5000017000F03DF880BD6C23002080B50A483D
:105A6000032101700021C180012101810221415ED9
:105A7000012904DB491E418000F02AF880BD03485B
:105A800001680020884780BD6C230020642300202B
:105A900080B50C48032101700021C18001210181E2
:105AA0000221415E0422825E521E914205DA89B2D1
:105AB000491C418000F00CF880BD034801680020BB
:105AC000884780BD6C2300206423002070470000BD
:105AD000F0B58BB03E480068002877D03D4C0A9066
